:100000000C9434000C943E000C943E000C943E0082
:100010000C943E000C943E000C943E000C943E0068
:100020000C943E000C943E000C943E000C943E0058
:100030000C943E000C943E000C943E000C943E0048
:100040000C943E000C943E000C943E000C943E0038
:100050000C943E000C943E000C943E000C943E0028
:100060000C943E000C943E0011241FBECFEFD8E04C
:10007000DEBFCDBF0E9440000C948F000C940000A6
:1000800084B1876084B98AB1837E8AB98BB18C616F
:100090008BB949B1447089B131E020E0682F6870B4
:1000A00083FD30E0832F922F59B150712EE130E063
:1000B000442311F030E020E0611102C02E5C3F4F7C
:1000C000511117C02531310504F1411106C0233308
:1000D000310554F421E030E00AC0611119C090E00C
:1000E00080E027343105B4F39C0190E080E028984B
:1000F00005C030E020E04111FACF289A892B59F051
:10010000299A232B51F02A9AC4CF21E030E0F3CF73
:1001100030E020E0EACF2998F4CF2A98BACFF894BB
:02012000FFCF0F
:00000001FF
