:100000000C9434000C943E000C943E000C943E0082
:100010000C943E000C943E000C943E000C943E0068
:100020000C943E000C943E000C943E000C943E0058
:100030000C943E000C943E000C943E000C943E0048
:100040000C943E000C943E000C943E000C943E0038
:100050000C943E000C943E000C943E000C943E0028
:100060000C943E000C943E0011241FBECFEFD8E04C
:10007000DEBFCDBF0E9440000C9454000C940000E1
:1000800084B1836084B98AB1837E8AB98BB18C6173
:100090008BB94C9903C0299A2898FBCF29984A9B81
:0C00A000289A4B99F6CFF8CFF894FFCFC8
:00000001FF
